:020000040800F2
:10000000D005002001010008512900082323000821
:100010004D2900086D0A0008212D0008000000008D
:100020000000000000000000000000009D2A000801
:100030009D0A000800000000552900089F2A0008BA
:100040001B0100081B0100081B0100081B01000820
:100050001B0100081B0100081B0100081B01000810
:100060001B0100081B0100081B0100081B01000800
:100070001B0100081B0100081B0100081B010008F0
:100080001B0100081B0100081B0100081B010008E0
:100090001B0100081B0100081B0100081B010008D0
:1000A0001B0100081B0100081B0100081B010008C0
:1000B0001B0100081B0100081B0100081B010008B0
:1000C0001B0100081B0100081B0100081B010008A0
:1000D0001B0100081B0100081B0100081B01000890
:1000E0001B0100081B0100081B010008DFF80CD0F1
:1000F00000F08EF800480047D5320008D0050020F7
:100100000648804706480047FEE7FEE7FEE7FEE7B1
:10011000FEE7FEE7FEE7FEE7FEE7FEE72B2B000823
:10012000ED000008202A04DB203A21FA02F0002129
:10013000704721FA02F3D040C2F1200291400843F7
:100140001946704740EA01039B0703D009E008C93C
:10015000121F08C0042AFAD203E011F8013B00F88C
:10016000013B521EF9D27047D2B201E000F8012BD8
:10017000491EFBD270470022F6E710B513460A4627
:1001800004461946FFF7F0FF204610BD0246C9B2EB
:1001900000E0401C0378002BFBD102E003788B4287
:1001A00003D0401E9042F9D2002070472DE9F05F45
:1001B0000546002092469B468846064681464024D6
:1001C0001BE02846414647462246FFF7ABFF534611
:1001D0005A46C01A914110D311461846224600F0E3
:1001E00029F82D1A67EB01084F462246012000210D
:1001F00000F020F817EB00094E41201EA4F1010485
:10020000DFDC484631462A464346BDE8F09F000001
:10021000064C074D06E0E06840F0010394E8070053
:1002200098471034AC42F6D3FFF764FFE43300087C
:1002300004340008202A04DB203A00FA02F10020EE
:1002400070479140C2F1200320FA03F31943904014
:10025000704770B5044600252068806800F00100F2
:1002600018B32068806820F001002168886001F0E0
:10027000D7F8054613E001F0D3F8401B02280ED949
:100280002068806800F0010048B1A06A40F01000CA
:10029000A062E06A40F00100E062012070BD2068C9
:1002A000806800F001000028E5D10020F6E770B575
:1002B00005466C6AA06A00F05000E0B9A06A40F4FC
:1002C0000070A0622068806800F46020B0F5602FA4
:1002D0000DD1207B58B9A06A20F48070A062A06A7A
:1002E00000F4805018B9A06A40F00100A0622046D6
:1002F00000F09AFC03E0206A016B2846884770BD35
:1003000070B505466C6AA06A40F04000A062E06AE1
:1003100040F00400E062204600F088FC70BD70B53B
:100320000446656A284600F080FC70BD38B5044676
:100330000025002000902068806800F0010078BB54
:100340002068806840F001002168886019480068D2
:100350001949B0FBF1F0009002E00098401E0090B7
:1003600000980028F9D101F05BF8054619E001F08A
:1003700057F8401B022814D92068806800F001005B
:1003800078B9A06A40F01000A062E06A40F0010075
:10039000E06200BF002084F8240000BF012038BDC7
:1003A00005E02068806800F001000028DFD0002010
:1003B000F5E700000C00002040420F002DE9F0415D
:1003C00005460C464AF6AF2020800220A07014207B
:1003D000E07014222946201DFFF7B4FE2646182798
:1003E000002004E0325CA1691144A161401CB842C4
:1003F000F8D3BDE8F081000038B5044604215B481D
:1004000000F0F6FF08B9012000E0002000B938BD77
:1004100057480078401C5649087008460078142850
:100420007EDB54480088002822D100BF5C2152A006
:10043000FFF7ACFE28B15C214FA0FFF7A7FE401CE0
:1004400000E04DA005464E22294650A002F06AFC6D
:1004500054A002F067FC58A002F064FC00BF00202A
:10046000574908605749086057490860574908606C
:10047000B4F9000055490968084454490860B4F9C2
:1004800002005149096808444F490860B4F9060060
:100490004C49096808444B490860B4F904004849CC
:1004A000096808444649086032480088401C3149C0
:1004B000088008460088322856DB444800680988CE
:1004C00090FBF1F0A0F57A7000B2414908803E48F7
:1004D00000682849098890FBF1F0A0F2DC5000B2D6
:1004E0003B494880374800682249098890FBF1F071
:1004F000A0F2DC5000B23649C880314800681D497E
:10050000098890FBF1F0A0F2DC5000B230498880FD
:1005100000BF5C2118A0FFF739FE38B15C2100E074
:1005200022E015A0FFF732FE401C00E012A00546B5
:100530005C22294615A002F0F5FB2548B0F904001D
:1005400000902348B0F90630B0F90220B0F900104D
:1005500020A002F0E7FB18A002F0E4FB00BF00209F
:10056000034908700349088000BF50E7000C0140B0
:1005700021000020340000202E2E5C4170705C4170
:1005800070705F52656D6F74652E63001B5B313B4D
:1005900033366D0D0A5B44454255472025733A2595
:1005A000645D200073746172742063616C696272AF
:1005B0006174652E2E2E00001B5B306D0D0A00004D
:1005C000300000202C000020280000202400002003
:1005D0001800002063616C69627261746520646F49
:1005E0006E652C207468723A2025642C207961771E
:1005F0003A2025642C207069743A2025642C2072DE
:100600006F6C3A202564000010B54FF400614D482E
:1006100000F0EEFE00281FD14B48C0880A3800B217
:100620004949C88000BF5C2148A0FFF7AFFD28B151
:100630005C2146A0FFF7AAFD401C00E043A0044651
:100640008A22214646A002F06DFB4BA002F06AFB15
:100650004BA002F067FB00BF4FF48041394800F027
:10066000C7FE00281FD13848C0880A3000B236497A
:10067000C88000BF5C2135A0FFF788FD28B15C2150
:1006800032A0FFF783FD401C00E030A004468E221C
:10069000214633A002F046FB3BA002F043FB38A00A
:1006A00002F040FB00BF4FF40051264800F0A0FECE
:1006B00000281FD1244880880A3000B2224988804F
:1006C00000BF5C2121A0FFF761FD28B15C211FA0C4
:1006D000FFF75CFD401C00E01CA00446922221466E
:1006E0001FA002F01FFB2BA002F01CFB24A002F0B5
:1006F00019FB00BF4FF48051124800F079FE00282A
:100700001FD1114880880A3800B20F49888000BF85
:100710005C210EA0FFF73AFD28B15C210BA0FFF78A
:1007200035FD401C00E009A00446962221460CA09D
:1007300002F0F8FA1AA002F0F5FA11A002F0F2FAAB
:1007400000BF10BD000C0140180000202E2E5C419F
:1007500070705C4170705F52656D6F74652E6300E0
:100760001B5B313B33366D0D0A5B444542554720D8
:1007700025733A25645D20004B45592055500000F3
:100780001B5B306D0D0A00004B455920444F574EFE
:10079000000000004B4559204C4546540000000025
:1007A0004B4559205249474854000000B0F9001009
:1007B00040F2BE52914208DBB0F9001040F2FA520A
:1007C000914202DC40F2DC510180B0F9021040F2AB
:1007D000D252914208DBB0F9021040F2E652914247
:1007E00002DC40F2DC514180B0F9061040F2D252F6
:1007F000914208DBB0F9061040F2E652914202DC69
:1008000040F2DC51C180B0F9041040F2D252914262
:1008100008DBB0F9041040F2E652914202DC40F2EB
:10082000DC5181807047B0F90010B1F57A7F02DCAD
:100830004FF47A710180B0F90010B1F5FA6F02DB64
:100840004FF4FA610180B0F90210B1F57A7F02DC51
:100850004FF47A714180B0F90210B1F5FA6F02DB02
:100860004FF4FA614180B0F90610B1F57A7F02DCED
:100870004FF47A71C180B0F90610B1F5FA6F02DB5E
:100880004FF4FA61C180B0F90410B1F57A7F02DC4F
:100890004FF47A718180B0F90410B1F5FA6F02DB80
:1008A0004FF4FA618180704745490A68091D454B3C
:1008B0001B7831F81310511A414A1160114609682A
:1008C000B0F9002011443E4A116001888AB23C49C7
:1008D000091D3C4B1B7821F81320091F09680A22C7
:1008E000B1FBF2F109B2018037490A68091D354BA5
:1008F0001B7831F81310511A334A116011460968F8
:10090000B0F902201144304A116041888AB22E4960
:10091000091D2C4B1B7821F81320091F09680A2296
:10092000B1FBF2F109B2418028490A68091D254B43
:100930001B7831F81310511A244A116011460968C6
:10094000B0F906201144214A1160C1888AB21F49BA
:10095000091D1C4B1B7821F81320091F09680A2266
:10096000B1FBF2F109B2C18019490A68091D154BA2
:100970001B7831F81310511A154A11601146096895
:10098000B0F904201144124A116081888AB21049DA
:10099000091D0C4B1B7821F81320091F09680A2236
:1009A000B1FBF2F109B2818006490978491C054A78
:1009B0001170114609780A2901DB00211170704776
:1009C0006C01002020000020840100209C010020F8
:1009D000B401002010B522490888C11700EB9171BD
:1009E0008910C1F5FA611F4A1288891A09B21E4A94
:1009F00011801B494888C11700EB91718910C1F51E
:100A0000FA61184A5288891A09B2174A5180144962
:100A10008888C11700EB91718910C1F5FA61114AFC
:100A2000D288891A09B2104AD1800D49C888C117E5
:100A300000EB91718910C1F5FA610A4A9288891A0E
:100A400009B2094A91801046FFF72EFF0648FFF7CA
:100A5000D3FC0548FFF7E7FE0348FFF7A7FE10BDEC
:100A600010000020180000205801002000BFFEE701
:100A700030B590F840500124AC40C56B6C60046800
:100A800063604468102C04D10468A2600468E160CB
:100A900003E00468A1600468E26030BD70470000B4
:100AA00001B582B06420012301AA02A90090034885
:100AB00001F01AFA9DF804000EBD0000B8000020F5
:100AC00072B600BFFEE7000038B5024600230020E2
:100AD000009000BF92F82400012801D1022038BD07
:100AE000012082F8240000BF4868072812D210684D
:100AF000406B0C79641E04EB84051F24AC40A043BA
:100B00000D796D1E05EB85050C68AC40204314681B
:100B1000606327E048680D2812D21068006B0C79DA
:100B2000E41F04EB84051F24AC40A0430D79ED1FA6
:100B300005EB85050C68AC4020431468206311E088
:100B40001068C06A0C790D3C04EB84051F24AC408E
:100B5000A0430D790D3D05EB85050C68AC402043A5
:100B60001468E06208680A2812D31068C0680C781C
:100B70000A3C04EB44050724AC40A0430D780A3D31
:100B800005EB45058C68AC4020431468E0600FE03D
:100B9000106800690C7804EB44050724AC40A043BE
:100BA0000D7805EB45058C68AC4020431468206146
:100BB0000868102802D00868112827D1174C10683F
:100BC000A0421ED11068806800F40000F0B91068DF
:100BD000806840F400001468A0600868102815D1EF
:100BE0000F4800680F4CB0FBF4F000EB80004000B1
:100BF000009002E00098401E009000980028F9D173
:100C000004E0906A40F020009062012300BF0020C1
:100C100082F8240000BF184661E70000002401406C
:100C20000C00002040420F007047704770470000E2
:100C30002DE9F0410446002700250026A84614B9F6
:100C40000120BDE8F081A06810B1207D00B100BF97
:100C5000A06A30B90020E06284F82400204600F049
:100C600089F82046FFF7F5FA0746A06A00F0100061
:100C7000002873D1002F71D1A06A20F4885040F071
:100C80000200A062E16960680843217B40EA4100FC
:100C90000643A068B0F5807F02D0A068012802D189
:100CA0004FF4807000E000200543207D012811D121
:100CB000207B38B9A069401E4FF4006141EA403002
:100CC000054307E0A06A40F02000A062E06A40F01F
:100CD0000100E0622068406820F4694028432168F0
:100CE0004860206880682149084030432168886056
:100CF000A068B0F5807F02D0A068012802D14FF42F
:100D0000807000E00020B0F5807F03D1208A401E73
:100D10004FEA00582068C06A20F4700040EA0800DA
:100D20002168C8622068806811490840B04208D133
:100D30000020E062A06A20F0020040F00100A06202
:100D400011E0A06A20F0020040F01000A062E06A0A
:100D500040F00100E062012705E0FFE7A06A40F0F3
:100D60001000A062012738466BE70000FDF7E1FFA5
:100D7000FE0E1FFF10B586B00446002002900390BF
:100D8000049005902249206888423ED100BF214846
:100D9000806940F400701F4988610846806900F44A
:100DA0000070019000BF00BF00BF0846806940F09E
:100DB000040088610846806900F00400019000BFCB
:100DC00000BF4E2002900320039002A9124800F0B9
:100DD0007FF912481249086000204860002110483D
:100DE00081608021C1604900016189004161202149
:100DF00081610021C16100F0D5F808B1FFF760FE04
:100E000000BF07482062446200BF06B010BD00006A
:100E10000024014000100240000801400800024088
:100E2000740000202DE9F04104460D4616460027C7
:100E300057492068884203D056492068884205D126
:100E40005348001D006800F4702000E000200028D6
:100E50007ED100BF94F82400012802D10220BDE811
:100E6000F081012084F8240000BF2046FFF75EFADD
:100E70000746002F6DD1A06A40F60161884340F417
:100E80008070A06243492068884209D14048001D13
:100E9000006800F4702008B9012002E0002000E0A2
:100EA000012078B1A06A20F48010A0622068406818
:100EB00000F4806000B3A06A20F4005040F4805039
:100EC000A06219E0A06A40F48010A0623049206856
:100ED000884203D02F492068884205D12C48001D44
:100EE000006800F4806000E0002028B1A06A20F4CF
:100EF000005040F48050A062A06A00F4805020B1FD
:100F0000E06A20F00600E06201E00020E06200BF3D
:100F1000002084F8240000BF1F48216A88621F480F
:100F2000216AC8621E48216A08636FF002002168C6
:100F300008602068806840F48070216888602268BA
:100F400002F14C0133462A46206A00F05FF801E0C6
:100F50001AE014E02068806800F46020B0F5602F8B
:100F600006D12068806840F4A000216888600CE009
:100F70002068806840F480102168886005E000BF28
:100F8000002084F8240000E00127384667E70000CD
:100F90000024014000280140AF0200081F030008A0
:100FA000010300080146002209B901207047164BD1
:100FB0000868C01A1423B0FBF3F0800008641248DC
:100FC0000838C863022081F821000868026843F6E7
:100FD000F0708243D1E901031843CB6818430B69D1
:100FE00018434B6918438B691843CB691843024374
:100FF0000868026000208863012081F82100002039
:1010000081F8200000BFD1E7080002402DE9F0413F
:1010100004460D4616461F464FF0000800BF94F8E0
:101020002000012802D10220BDE8F081012084F8CF
:10103000200000BF94F8210001282CD1022084F860
:1010400021000020A0632068006820F001002168D2
:1010500008603B46324629462046FFF709FDE06A14
:1010600030B12068006840F00E00216808600BE095
:101070002068006820F0040021680860206800688B
:1010800040F00A00216808602068006840F0010014
:101090002168086006E000BF002084F8200000BF3F
:1010A0004FF002084046BFE770B5044600F0B8F9BB
:1010B00006462546681C10B104480078054400BF68
:1010C00000F0AEF9801BA842FAD370BD08000020E2
:1010D0002DE9F8470346002294466EE14FF00108DF
:1010E00008FA02F4D1F8008008EA0400A0427DD199
:1010F000DFF8DCA2D1F80480A8EB0A09D0453AD089
:1011000014DCB8F1030F50D009DCB8F1000F31D076
:10111000B8F1010F1CD0B8F1020F49D120E0B8F1AD
:10112000110F18D0B8F1120F42D11EE0B9F5881F87
:1011300025D006DCB9F5803F20D0B9F5801F37D126
:101140001AE0B9F5001F18D0B9F5041F30D117E027
:10115000D1F80CC02DE0D1F80C8008F1040C28E087
:10116000D1F80C8008F1080C23E0D1F80C8008F1CC
:101170000C0C1EE000BF00BF00BF00BF00BF00BFDF
:10118000D1F80880B8F1000F02D14FF0040C0BE049
:10119000D1F80880B8F1010F03D14FF0080C1C61A1
:1011A00002E04FF0080C5C6103E04FF0000C00E03F
:1011B00000BF00BFFF2801D8984601E003F10408F2
:1011C0004646FF2802D84FEA820803E0A2F1080849
:1011D0004FEA88084746D6F800804FF00F0909FA11
:1011E00007F928EA09080CFA07F900E088E048EA5C
:1011F0000908C6F80080D1F8048008F08058B8F1DA
:10120000805F7DD100BFDFF8CC81D8F8188048F02E
:101210000108DFF8C091C9F81880C846D8F81880CE
:1012200008F00108CDF8008000BF00BF4FEAB938D0
:101230004FEA920958F829504FEA82784FEA187914
:101240004FF00F0808FA09F825EA0805DFF8888149
:10125000434502D14FF0000816E0DFF88081434596
:1012600002D14FF001080FE0DFF87481434502D14D
:101270004FF0020808E0DFF86C81434502D14FF0DF
:10128000030801E04FF004084FEA82794FEA197928
:1012900008FA09F848EA0505DFF84C814FEA920997
:1012A00048F82950D1F8048008F48018B8F5801F58
:1012B0000AD1DFF83881D8F8008048EA0008DFF862
:1012C0002C91C9F8008009E0DFF82081D8F800806F
:1012D00028EA0008DFF81491C9F80080D1F80480EA
:1012E00008F40018B8F5001F10D1DFF8008108F1EC
:1012F0000408D8F8008048EA0008DFF8F09000E021
:101300005AE009F10409C9F800800DE0DFF8DC803B
:1013100008F10408D8F8008028EA0008DFF8CC902B
:1013200009F10409C9F80080D1F8048008F40038F4
:10133000B8F5003F0ED1DFF8B480A8F10408D8F862
:10134000008048EA0008DFF8A490A9F10409C9F870
:1013500000800DE0DFF89480A8F10408D8F8008040
:1013600028EA0008DFF88490A9F10409C9F8008090
:10137000D1F8048008F48038B8F5803F0ED1DFF84A
:101380006C80A8F10808D8F8008048EA0008DFF867
:101390005C90A9F10809C9F800800DE0DFF84C80E5
:1013A000A8F10808D8F8008028EA0008DFF83C9087
:1013B000A9F10809C9F80080521CD1F8008028FA68
:1013C00002F8B8F1000F7FF489AEBDE8F88700009D
:1013D000000011100010024000080140000C014004
:1013E00000100140001401400800014008040140C1
:1013F000024693680B400BB1012000E000207047CB
:1014000010B5C26821EA020302EA010443EA044378
:10141000036110BD0AB1016101E00B040361704773
:101420000148006870470000000000200348006881
:10143000034909780844014908607047000000200A
:101440000800002010B50848006840F01000064968
:101450000860032000F098F80F2000F007F800F073
:101460002BF8002010BD00000020024070B504469B
:101470000E4800784FF47A71B1FBF0F00C4909681E
:10148000B1FBF0F5284600F053FE08B1012070BD15
:10149000102C07D200222146501E00F037F80548D4
:1014A000046001E00120F2E70020F0E708000020DE
:1014B0000C0000200400002008B500BF114880691E
:1014C00040F001000F4988610846806900F0010082
:1014D000009000BF00BF00BF0846C06940F08050C8
:1014E000C8610846C06900F08050009000BF00BF8E
:1014F00000BF0549486820F0E06040F00070486097
:1015000000BF08BD00100240000001402DE9F05F5F
:1015100080460D461646002701F014FC0746394662
:101520002A46334601F00700C0F1070ABAF1040F5A
:1015300002D94FF0040A01E0C0F1070AD14600F1D8
:10154000040ABAF1070F02D24FF0000A01E0A0F13D
:10155000030AD4464FF0010A0AFA09FAAAF1010A6D
:101560000AEA020A0AFA0CFA4FF0010B0BFA0CFB1A
:10157000ABF1010B0BEA030B4AEA0B042146404690
:1015800001F0E8FBBDE8F09F00BF00F00702064B4A
:1015900019684FF6FF031940044B0B4343EA02213D
:1015A000014B196000BF70470CED00E00000FA0528
:1015B000F8B5044600260025207800F00100002838
:1015C0006BD000274348C06900F0805070B900BF5D
:1015D0004048C06940F080503E49C8610846C06933
:1015E00000F08050009000BF00BF01273A4800681B
:1015F00000F48070B0B93848006840F48070364913
:101600000860FFF70DFF064606E0FFF709FF801BA5
:10161000642801D90320F8BD2F48006800F48070C9
:101620000028F2D02B48006A00F440752DB3A08842
:1016300000F44070A84220D02648006A20F440758B
:10164000012026490860002008602248056205F054
:10165000010090B1FFF7E4FE064608E0FFF7E0FE68
:10166000801B41F28831884201D90320D3E7194811
:10167000006A00F002000028F0D01648006A20F44A
:1016800040706168084313490862012F04D108467D
:10169000C06920F08050C86100BF207800F00200CF
:1016A000022807D10B48406820F44040A168084355
:1016B00008494860207800F01000102807D105483C
:1016C000406820F48000E168084302494860002037
:1016D000A1E70000001002400070004040044242B8
:1016E00070B504460D460CB9012070BD5A4800681B
:1016F00000F00700A8420ED25748006820F007000B
:101700002843554908600846006800F00700A842D1
:1017100001D00120E9E7207800F0020002281DD165
:10172000207800F00400042805D14C48406840F4BB
:10173000E0604A494860207800F00800082805D198
:101740004648406840F46050444948604348406817
:1017500020F0F000A168084340494860207800F07C
:10176000010078B36068012806D13C48006800F4A5
:10177000003090B90120B8E76068022806D13748E8
:10178000006800F0007040B90120AEE733480068FF
:1017900000F0020008B90120A7E73048406820F0B7
:1017A0000300616808432D494860FFF739FE06468B
:1017B00009E0FFF735FE801B41F28831884202D9EB
:1017C000032092E707E02548406800F00C006168BC
:1017D000B0EB810FEDD12048006800F00700A8426F
:1017E0000ED91D48006820F0070028431A490860F8
:1017F0000846006800F00700A84201D0012074E705
:10180000207800F00400042807D11448406820F430
:10181000E060E168084311494860207800F0080062
:10182000082808D10D48406820F46050216940EA3A
:10183000C1000A49486000F03FF808494968C1F30F
:101840000311074A515CC840064908600648006811
:10185000FFF70CFE002048E7002002400010024085
:10186000CA3300080C000020040000200148006872
:10187000704700000C00002000B5FFF7F7FF044997
:101880004968C1F30221034A515CC84000BD000011
:1018900000100240DA33000800B5FFF7E7FF044903
:1018A0004968C1F3C221034A515CC84000BD000031
:1018B00000100240DA33000870B500210022002435
:1018C00000230020134D696801F00C05F5B1042DCB
:1018D00002D0082D19D101E00F4819E00F4DC1F3D6
:1018E0008346AB5D01F4803555B10A4D6D68C5F393
:1018F00040450B4E725D084D5D43B5FBF2F402E0CE
:10190000084D03FB05F4204602E000BF024800BF7B
:1019100000BF70BD0010024000127A00B83300080A
:10192000C833000800093D00F8B504460CB9012091
:10193000F8BD207800F00100002878D0F848406811
:1019400000F00C0004280CD0F548406800F00C00B2
:10195000082811D1F248406800F48030B0F5803F8B
:101960000AD1EF48006800F4003000285FD06068BA
:1019700000285CD10120DBE700BF6068B0F5803F44
:1019800006D1E748006840F48030E549086028E067
:10199000606858B9E248006820F48030E049086087
:1019A0000846006820F4802008601AE06068B0F5FE
:1019B000A02F0BD1DA48006840F48020D849086095
:1019C0000846006840F4803008600AE0D4480068A7
:1019D00020F48030D24908600846006820F4802056
:1019E000086000BF606888B1FFF71AFD054606E091
:1019F000FFF716FD401B642801D9032098E7C8486B
:101A0000006800F400300028F2D010E0FFF708FD75
:101A1000054606E0FFF704FD401B642801D90320BA
:101A200086E7BF48006800F400300028F2D1207833
:101A300000F00200022857D1B948406800F00C00BD
:101A400050B1B748406800F00C00082818D1B448DD
:101A5000406800F4803098B9B148006800F0020096
:101A600020B12069012801D0012061E7AC4800685D
:101A700020F0F800616940EAC100A949086033E03C
:101A80002069E8B10120A7490860FFF7C9FC0546B5
:101A900006E0FFF7C5FC401B022801D9032047E7F9
:101AA0009F48006800F002000028F2D09C480068BF
:101AB00020F0F800616940EAC1009949086013E02C
:101AC000002098490860FFF7ABFC054606E0FFF7E9
:101AD000A7FC401B022801D9032029E79048006891
:101AE00000F002000028F2D1207800F00800082859
:101AF0002DD1A069B8B101208B490860FFF790FC97
:101B0000054606E0FFF78CFC401B022801D90320A4
:101B10000EE78348406A00F002000028F2D001205E
:101B200000F01AFF13E000207F490860FFF778FCFF
:101B3000054606E0FFF774FC401B022801D903208C
:101B4000F6E67748406A00F002000028F2D12078DB
:101B500000F00400042873D100277148C06900F028
:101B6000805070B900BF6E48C06940F080506C4929
:101B7000C8610846C06900F08050009000BF00BFF7
:101B800001276A48006800F48070B0B967480068AF
:101B900040F4807065490860FFF742FC054606E0A6
:101BA000FFF73EFC401B642801D90320C0E65F48D4
:101BB000006800F480700028F2D000BFE0680128BF
:101BC00006D15748006A40F001005549086227E0F5
:101BD000E06858B95248006A20F001005049086294
:101BE0000846006A20F00400086219E0E068052851
:101BF0000BD14B48006A40F004004949086208468E
:101C0000006A40F0010008620AE04548006A20F0DE
:101C10000100434908620846006A20F00400086297
:101C200000BFE068A0B1FFF7FBFB054609E0FFF746
:101C3000F7FB401B41F28831884202D9032077E646
:101C400022E03748006A00F002000028EFD012E0DE
:101C5000FFF7E6FB054608E0FFF7E2FB401B41F219
:101C60008831884201D9032062E62D48006A00F0DD
:101C700002000028F0D1012F05D12948C06920F0C9
:101C800080502749C86100BFE069C8B32448406854
:101C900000F00C00082860D0E069022848D100203C
:101CA00020490866FFF7BCFB054606E0FFF7B8FBD6
:101CB000401B022801D903203AE61948006800F0C9
:101CC00000700028F2D1206AB0F5803F07D1144897
:101CD000406820F40030A168084311494860D4E905
:101CE000080108430E49496821F4741108430C495E
:101CF000486001200B490866FFF792FB054607E0A4
:101D00003DE0FFF78DFB401B022801D903200FE6C1
:101D10000348006800F000700028F2D02FE00000B7
:101D20000010024000004242800442420070004025
:101D3000002014490866FFF773FB054606E0FFF72D
:101D40006FFB401B022801D90320F1E50E48006813
:101D500000F000700028F2D111E0E069012800D104
:101D6000E6E50948466806F48031206A814204D1DC
:101D700006F47011606A814201D00120D8E500208C
:101D8000D6E50000000042420010024010B50446B3
:101D90000CB9012010BD606A38B96068B0F5827F67
:101DA00000D105E00021E16102E0002121616161D3
:101DB0000021A16294F8510028B9002084F8500055
:101DC000204600F043F8022084F8510020680068A3
:101DD00020F0400021680860A08800F4827021890A
:101DE00001F404410843A18901F400610843217C06
:101DF00001F002010843217D01F001010843218B1C
:101E000001F400710843217F01F0380108432021CB
:101E1000095D01F080010843218D01F40051084360
:101E2000216808600421A06901EA10402168486027
:101E30002068C06920F400602168C86100206065E6
:101E4000012084F851000020A4E7000010B586B0FE
:101E50000446002002900390049005901E492068DB
:101E6000884236D100BF1D48806940F480501B492C
:101E700088610846806900F48050019000BF00BF6F
:101E800000BF0846806940F0080088610846806904
:101E900000F00800019000BF00BF2820029002203F
:101EA00003900320059002A90D48FFF711F91020B7
:101EB000029000200390049002A90948FFF708F956
:101EC00000BF0849486840F0E06040F00100486009
:101ED00000BF06B010BD00000030014000100240FD
:101EE000000C0140000001402DE9FE4F04460F4662
:101EF00090461D460C9E01200190FFF791FA814605
:101F000094F851B060680290AA46BBF1010F0BD063
:101F10000298B0F5827F04D1A06810B9BBF1040F1C
:101F200002D00220BDE8FE8F1FB1B8F1000F00D033
:101F30000DB90120F6E700BF94F85000012801D147
:101F40000220EFE7012084F8500000BF94F8510010
:101F5000042802D0052084F8510000206065C4F8F0
:101F60003880E587A5872763E586A58620646064B9
:101F70002068006800F04000402805D02068006814
:101F800040F0400021680860E068B0F5006F52D171
:101F9000606810B1BAF1010F09D1206B0088216887
:101FA000C860206B801C2063E08E401EE0863BE012
:101FB0002068806800F00200022810D1E08E70B125
:101FC000019801280BD1206B00882168C860206B24
:101FD000801C2063E08E401EE08600200190206877
:101FE000806800F0010068B1E08F58B12068C068D7
:101FF000A16B0880A06B801CA063E08F401EE0876F
:1020000001200190FFF70CFAA0EB0900B0420BD3BE
:10201000701C48B1012084F8510000BF002084F8F2
:10202000500000BF03207DE7E08E0028C0D1E08F84
:102030000028BDD152E0606810B1BAF1010F09D19A
:10204000206B007821680873206B401C2063E08EB1
:10205000401EE0863CE02068806800F00200022814
:1020600010D1E08E70B1019801280BD1206B00785F
:1020700021680873206B401C2063E08E401EE086C0
:10208000002001902068806800F0010068B1E08FB6
:1020900058B12068C068A16B0870A06B401CA06399
:1020A000E08F401EE08701200190FFF7B9F9A0EB17
:1020B0000900B04201D3701C00B94EB9012084F868
:1020C000510000BF002084F8500000BF032029E722
:1020D000E08E0028BFD1E08F0028BCD14A463146AF
:1020E000204600F04DFC40B12020606500BF00207C
:1020F00084F8500000BF012014E7A06850B900BF69
:10210000002000902068C0680090206880680090DF
:1021100000BF00BF012084F8510000BF002084F8F8
:10212000500000BF606D08B10120FBE60020F9E619
:1021300070B504462546681EB0F1807F01D30120AA
:102140000FE0681E4FF0E02148610F214FF0FF3093
:1021500000F000FE00204FF0E021886107200861B8
:10216000002070BD10B504460CB9012010BDA06957
:1021700000B100E000BF94F8410028B9002084F8C5
:102180004000204600F02AF8242084F8410020680E
:10219000C06820F400502168C860204600F0FCFCB4
:1021A0002068006920F49040216808612068406937
:1021B00020F02A00216848612068C06840F400507F
:1021C0002168C86000206064202084F8410084F801
:1021D00042000020606300BFC8E7000010B586B071
:1021E0000446002002900390049005901A4920684C
:1021F00088422ED100BF1948806940F480401749B9
:1022000088610846806900F48040019000BF00BFEB
:1022100000BF0846806940F0040088610846806974
:1022200000F00400019000BF00BF4815029002209A
:1022300003900320059002A90948FEF749FF4FF4D7
:102240008060029000200390049002A90448FEF7E9
:102250003FFF06B010BD00000038014000100240F2
:10226000000801402DE9F84F04460E4617469946EE
:102270004FF0000A94F84100202850D106B117B958
:102280000120BDE8F88F00206064212084F841001F
:10229000FFF7C6F88246A784E784A068B0F5805FA0
:1022A00004D1206910B90025B04602E035464FF050
:1022B00000081EE05346002280212046CDF8009001
:1022C00000F0E8FC20B1202084F841000320D8E78A
:1022D00045B9B8F80000C0F308002168486008F16B
:1022E000020803E02878216848606D1CE08C401EDD
:1022F000E084E08C0028DDD15346002240212046B6
:10230000CDF8009000F0C6FC20B1202084F84100F8
:102310000320B6E7202084F841000020B1E7022026
:10232000AFE700BFFEE700007CB500200090019001
:1023300046E005222349302000F0CAF9052269460B
:10234000102000F059F9002437E01DF804001D4961
:10235000095D884212D000BF1BA000F0E3FC1FA063
:1023600000F0E0FC29A000F0DDFC0521684600F04B
:1023700053FF28A000F0D6FC00BF20E0042C1AD1A7
:1023800000BF5C2125A0FDF701FF28B15C2123A03F
:10239000FDF7FCFE401C00E020A005468A222946ED
:1023A00023A000F0BFFC28A000F0BCFC19A000F0A6
:1023B000B9FC00BF7CBD601CC4B2052CC5DB00BFEE
:1023C000B7E70000360000201B5B313B33366D0D54
:1023D0000A5B44554D505D2000000000496E745F5B
:1023E0005349323452315F54657374204661696CCD
:1023F00065642C2054585F41444452455353206E29
:102400006F74206D61746368000000000D0A0D0A8E
:10241000000000001B5B306D0D0A00002E2E5C4991
:102420006E745C496E745F5369323452312E6300AE
:102430001B5B313B33366D0D0A5B444542554720EB
:1024400025733A25645D2000496E745F5349323428
:1024500052315F546573742070617373656400005A
:102460001FB5002280213748FEF7D4FF05223649E8
:10247000302000F02DF9052234492A2000F028F9F7
:102480000121212000F00CF90121222000F008F99F
:102490000A21242000F004F92821252000F000F969
:1024A0000F21262000F0FCF80E21202000F0F8F883
:1024B00000BF5C2126A0FDF769FE28B15C2124A0A5
:1024C000FDF764FE401C00E021A0044616222146D0
:1024D00024A000F027FC29A000F024FC2EA000F08E
:1024E00021FC00BF002002900390052202A91020C9
:1024F00000F082F800BF5C2115A0FDF747FE28B16F
:102500005C2113A0FDF742FE401C00E010A0044631
:102510001922214613A000F005FC9DF80C009DF83F
:102520000B10CDE900109DF80A309DF809209DF8A8
:1025300008101BA000F0F6FB17A000F0F3FB00BF93
:102540001FBD0000000C0140360000203B000020B1
:102550002E2E5C496E745C496E745F53693234523E
:10256000312E63001B5B313B33366D0D0A5B4445F6
:102570004255472025733A25645D2000496E745FFB
:102580005349323452315F496E697454784D6F64E7
:102590006520646F6E6500001B5B306D0D0A0000E6
:1025A00054585F414444524553533A2025303258E1
:1025B00020253032582025303258202530325820FE
:1025C000253032580000000070B5044600224FF458
:1025D00000410848FEF71EFF2046FEF761FA002082
:1025E000FEF75EFA05460122D1030248FEF712FF0C
:1025F000284670BD000801402DE9F04107460D4610
:10260000164600224FF400410B48FEF703FF384600
:10261000FEF746FA002405E00020FEF741FA2855AF
:10262000601CC4B2B442F7DB0122D1030248FEF7BA
:10263000F1FEBDE8F08100000008014070B50546DC
:10264000002280211548FEF7E5FE1C222946A02025
:1026500000F03EF8012280211048FEF7DBFE00BFAB
:1026600040210E48FEF7C4FE0128F9D00720FFF7ED
:10267000ABFF04462146272000F012F804F01000BA
:1026800028B1FF21E12000F00BF8102070BD04F00C
:10269000200008B12020F9E7FF20F7E7000C0140F7
:1026A00070B505460C4600224FF400410748FEF77E
:1026B000B1FE2846FEF7F4F92046FEF7F1F90122B3
:1026C000D1030248FEF7A6FE70BD000000080140DD
:1026D0002DE9F04107460D46164600224FF4004111
:1026E0000A48FEF797FE3846FEF7DAF9002404E0C0
:1026F000285DFEF7D5F9601CC4B2B442F8DB0122B4
:10270000D1030248FEF786FEBDE8F08100080140D3
:102710000EB50020009001900290224822490860E6
:1027200081152148816001210173002101754FF459
:102730006021C16100201C49486004211A480161E0
:10274000FEF776FA08B1FEF7BBF901200090019080
:10275000029069461448FEF7B7F908B1FEF7B0F9E0
:10276000062000900220019069460F48FEF7ACF960
:1027700008B1FEF7A5F902200090032001906946F8
:102780000948FEF7A1F908B1FEF79AF90320009075
:102790000420019069460448FEF796F908B1FEF757
:1027A0008FF90EBD002401404400002008B500BF91
:1027B0000648406940F00100044948610846406904
:1027C00000F00100009000BF00BF08BD00100240F3
:1027D00000B585B00020019002900390049000BFE6
:1027E0003848806940F02000364988610846806991
:1027F00000F02000009000BF00BF00BF08468069C5
:1028000040F0040088610846806900F004000090F0
:1028100000BF00BF00BF0846806940F00800886123
:102820000846806900F00800009000BF00BF012248
:10283000D1032548FEF7EEFD0122D1032348FEF720
:10284000E9FD002280212048FEF7E4FD04200190EC
:1028500000200290039001A91B48FEF739FC47F6BF
:1028600040000190002002900120039001A9164829
:10287000FEF72EFC4FF40040019011200290002042
:1028800003900320049001A90F48FEF721FC4FF4A8
:10289000004001900120029000200390032004904A
:1028A00001A90A48FEF714FC802001900120029043
:1028B000002003900320049001A90348FEF708FCC0
:1028C00005B000BD00100240000C014000080140AE
:1028D00010B50E480E4908604FF482704860002120
:1028E0000B488160C160016141614FF400718161F9
:1028F0001021C16100210162416281620A21C1622D
:10290000FFF744FA08B1FEF7DBF810BD00300140D4
:10291000B800002010B50B480B4908604FF4E130B7
:102920004860002108488160C16001610C2141615B
:1029300000218161C161FFF715FC08B1FEF7C0F805
:1029400010BD0000003801401001002000BFFEE76C
:1029500000BFFEE77047000008B508490968C908CC
:102960004FF47A72B1FBF2F14143009100BF00BF16
:1029700000994A1E00920029F9D108BD0C000020E0
:10298000F8B504460E46154633460122022120467C
:10299000009500F017F828B1606D40F020006065E8
:1029A0000320F8BD3346002280212046009500F028
:1029B00009F828B1606D40F0200060650320F0E761
:1029C0000020EEE72DE9F84F04460D4690461E46DE
:1029D000DDF82890FEF724FDA0EB0900371AFEF77A
:1029E0001FFD82462C480068C0F3CB30784300902E
:1029F00045E0701C002842D0FEF712FDA0EB0A0053
:102A0000B84200D2A7BB2068406820F0E0002168EF
:102A100048606068B0F5827F0DD1A068B0F5004FC6
:102A200003D0A068B0F5806F05D12068006820F061
:102A3000400021680860A06AB0F5005F0DD100BFBA
:102A40002068006820F40050216808602068006851
:102A500040F400502168086000BF012084F8510054
:102A600000BF002084F8500000BF0320BDE8F88FAD
:102A7000FFE7009800B900270098401E00902068EA
:102A800080682840A84201D1012000E00020404594
:102A9000AFD10020EAE700000C000020704710B51D
:102AA000FEF7C4FC10BD00B593B0282109A8FDF7BE
:102AB00062FB142104A8FDF75EFB0020009001904A
:102AC000029003900120099000040A9000200B90CE
:102AD00001200D9002201090C10311914FF4E011DC
:102AE000129109A8FEF720FF08B1FDF7E9FF0F20BA
:102AF000049002200590002006904FF4806007901B
:102B000000200890022104A8FEF7EAFD08B1FDF7B5
:102B1000D7FF02200090800302906846FEF748FD30
:102B200008B1FDF7CDFF13B000BD704700BF00BF77
:102B300002680C3252E8002F22F4907102680C32C5
:102B400042E80013002BF3D100BF00BF00BF0268B2
:102B5000143252E8002F22F001010268143242E8D8
:102B60000013002BF3D100BF016B01290ED100BF70
:102B700000BF02680C3252E8002F22F010010268F8
:102B80000C3242E80013002BF3D100BF202180F863
:102B9000421000210163704770B50446216809693D
:102BA00021F44051E2681143226811612269A16851
:102BB0001143626941EA02052168C96841F20C6269
:102BC000914329432268D1602168496921F4407109
:102BD000A2691143226851612D4A2168914202D1B4
:102BE000FEF75AFE01E0FEF747FE00EBC00101EBE5
:102BF000001162689200B1FBF2F100EBC00202EB3F
:102C0000001263689B00B2FBF3F26423B2FBF3F2A1
:102C100002EBC20303EB0212A1EB8201322202EBB0
:102C200001116422B1FBF2F101F0F00100EBC002EE
:102C300002EB001263689B00B2FBF3F26423B2FB69
:102C4000F3F201EB021200EBC00101EB001163682B
:102C50009B00B1FBF3F100EBC00303EB00136668CC
:102C6000B600B3FBF6F36426B3FBF6F303EBC3063F
:102C700006EB0313A1EB8301322303EB0111642361
:102C8000B1FBF3F101F00F0111442268916070BDB6
:102C9000003801402DE9F84304460D461746984692
:102CA000089E31E0701C70B3FEF7BAFBA0EB080081
:102CB000B04200D816B90320BDE8F8832068C06888
:102CC00000F00400F8B1802D1ED0402D1CD02068EB
:102CD0000068C0F3C000B0B100BF002000902068C1
:102CE0000068009020684068009000BF00BF204648
:102CF000FFF71CFF0820606400BF002084F840003C
:102D000000BF0120D8E7FFE7206800682840A842FC
:102D100001D1012000E00020B842C3D00020CBE761
:102D200000BFFEE70FB4054B10B503A9044A029893
:102D300000F034F810BC5DF814FB0000013200080C
:102D40004000002002480068C0F3022070470000E5
:102D50000CED00E010B5002804DB0A07130E054A4D
:102D6000135406E00A07140E034A00F00F031B1F5A
:102D7000D45410BD00E400E018ED00E002E008C803
:102D8000121F08C1002AFAD170477047002001E0E5
:102D900001C1121F002AFBD1704700002DE9FF4F2F
:102DA0008DB00F460546002606E025280BD0DDE94C
:102DB0000F1290476D1C761C28780028F5D111B0B1
:102DC0003046BDE8F08F0024A246A1460122EC491E
:102DD00000E0044315F8013F203B02FA03F00842EB
:102DE000F7D128782A2810D06FF02F022878A0F188
:102DF0003001092914D80AEB8A0102EB410144F0A1
:102E0000020400EB010A6D1CF0E701CF5FEA000A43
:102E100003D544F40054CAF1000A44F002046D1CC6
:102E200028782E2817D115F8010F44F004042A2819
:102E30000ED06FF02F022878A0F1300109290AD8AE
:102E400009EB890102EB410100EB01096D1CF2E77E
:102E500057F8049B6D1C28786C280FD006DC4C2892
:102E600017D068280DD06A2814D104E0742810D037
:102E70007A280FD10DE044F400140AE044F48014E1
:102E800001E044F440146978814202D104F58014D1
:102E90006D1C6D1C2A786E2A1FD00CDC632A31D081
:102EA00004DC002A8BD0582A11D1A3E0642A68D010
:102EB000692A0CD165E0732A2ED004DC6F2A73D006
:102EC000702A04D19BE0752A6FD0782A6ED0104604
:102ED000DDE90F129047761C50E1C4F3025002283E
:102EE00006D0032809D0042801CF09D0066045E1A7
:102EF00001CFF117C0E9006140E101CF06803DE15B
:102F000006703BE117F8040B8DF8000000208DF8E7
:102F10000100EB46012003E057F804BB4FF0FF30FF
:102F200061074FF0000102D40DE008F1010188466D
:102F300049450FDA8045F8DB1BF808100029F4D169
:102F400008E008F1010188468142FADB1BF808100D
:102F50000029F6D1DDE90F23AAEB080081462146BE
:102F600000F036F9304400EB080604E0DDE90F120A
:102F70001BF8010B9047B8F10108F7D221464846EB
:102F8000F7E00A21C4F302534FF0000B0891022B23
:102F900004D001CFC117032B09D00AE0FF1D27F091
:102FA0000707F7E8020108E032E01FE020E000B286
:102FB000C117042B01D140B2C117031E71F10003E8
:102FC00007DA4FF0000CD0EB0C006CEB01012D2365
:102FD00002E0230504D52B238DF82430012303E0E0
:102FE000E30701D02023F7E7984658E00A2110E0D4
:102FF00010210EE010204FF0000B08900CE0102183
:103000004FF0000B44F004044FF00809089103E06E
:1030100008214FF0000B0891C4F30253022B04D097
:1030200001CF0021032B06D006E0FF1D27F0070784
:10303000F7E8020103E080B2042B00D1C0B24FF0E8
:10304000000823072BD5702A07D0DDF820C08CF0AC
:10305000100C5CEA0B0C05D00EE040238DF82430F8
:10306000012308E050EA010306D030238DF8243014
:103070008DF8252002239846DDF820C08CF0080C3E
:103080005CEA0B0C0BD150EA010301D1630706D5B2
:1030900030238DF824304FF00108A9F10109582A96
:1030A00004D038A20B9208AA0A920BE03AA2F9E7E0
:1030B0005B46089AFDF77AF80B9B9B5C0A9A521EB6
:1030C0000A92137050EA0102F2D10A98ADEB0000A7
:1030D00000F1200B600702D524F4803401E04FF0AA
:1030E0000109D94502DDA9EB0B0000E0002000EB4F
:1030F0000B0141440890AAEB010AE00306D4DDE984
:103100000F232146504600F063F806444FF00009B3
:1031100008E009A911F80900DDE90F12904709F14B
:103120000109761CC145F4DBE0030CD5DDE90F2372
:103130002146504600F04CF8064404E0DDE90F1249
:1031400030209047761C0899481E08900029F5DC2D
:1031500008E00A980A990078491C0A91DDE90F12E3
:103160009047761CBBF10001ABF1010BF1DC21466D
:103170005046DDE90F2300F019F806446D1C1BE6EC
:10318000092801003031323334353637383961623D
:103190006364656600000000303132333435363701
:1031A0003839414243444546000000002DE9F041D2
:1031B000044600251E461746880404D405E0394617
:1031C0002020B0476D1C641EF9D52846BDE8F0816B
:1031D0002DE9F041044600251E469046C80301D55E
:1031E000302700E02027880404D505E04146384612
:1031F000B0476D1C641EF9D52846BDE8F08100007B
:1032000013B50C460A23012269460248FFF72AF843
:1032100000981CBD100100202DE9F04107468846AA
:1032200000244DE0385D0511385D00F00F060A2DD1
:1032300003DA05F13000C5B202E005F13700C5B28E
:103240000A2E03DA06F13000C6B202E006F13700BA
:10325000C6B21D49284600F0ADF81B49304600F0C3
:10326000A9F81AA0FFF75EFD601CC11700EB1171F1
:103270000911A0EB011119B915A0FFF753FD1EE0CC
:10328000601CC11700EB5171C910A0EBC10189B9D5
:1032900020250D49284600F08DF80B49284600F0FE
:1032A00089F80949284600F085F80749284600F0C2
:1032B00081F804E020250449284600F07BF8641CCE
:1032C0004445AFDBBDE8F081400000202000000055
:1032D0000D0A000088B0FEF7B5F8FFF7E4FBFFF732
:1032E00077FAFFF763FAFFF7F3FAFFF713FBFFF73D
:1032F0000FFA04221B491C48FDF794FDFFF714F850
:10330000FFF7AEF800BF5C2118A0FCF73FFF28B123
:103310005C2116A0FCF73AFF401C00E013A0044615
:103320006B22214616A0FFF7FDFC1BA0FFF7FAFC5D
:103330001CA0FFF7F7FC00BF12E04FF400411B4850
:10334000FEF75EF8FDF746FBFDF75EF96420FDF73A
:10335000ABFE01A91648FDF731F801A8FFF76EF999
:10336000EBE7000010000020440000202E2E2F4329
:103370006F72652F5372632F6D61696E2E6300004B
:103380001B5B313B33366D0D0A5B4445425547208C
:1033900025733A25645D200068656C6C6F20776F3B
:1033A000726C64001B5B306D0D0A0000000C014064
:1033B00058010020FFF724BF02030405060708098F
:1033C0000A0B0C0D0E0F101001020000000000008F
:1033D00000000102030406070809000000000102C2
:1033E0000304000004340008000000204400000032
:1033F0007C2D000848340008440000208C050000A3
:103400008C2D0008000000001000000001000000EA
:1034100000127A0000000000000000000000000020
:10342000000000000000000000000000000000009C
:10343000000000000000000000000A01070E010A61
:0834400001070E01000000006D
:04000005080000ED02
:00000001FF
